:04000000FEEFFFF020
:02FFFE00000001
:020000040001F9
:10000000F331ED80C34100FFC33400FFFFFFFFFF6A
:10001000C31B00FFFFFFFFFFC32E003A01E0CB47E9
:1000200028F93A00E0FE61D8FE7BD0E6DFC93A014C
:10003000E0CB47C9F53A01E0CB4F28F9F13200E0B7
:10004000C9C34400C34A00C3BF00C35100020978BA
:1000500010214580F9C3931C1129030663214580B3
:100060001A77231305C26000F9CD2A05CDF80A32AC
:10007000EF80323E8121A281237CB5CA87007E4772
:100080002F77BE70CA78002B11A181CDC006DAC8C7
:100090000011CEFF22F48019229F80CD05052A9FF2
:1000A0008011EFFF19113E817D936F7C9A67E521E6
:1000B000E000CD9611E1CD391821D100CD96113156
:1000C000AB80CD2A05C34304211701CD9611C3CEC1
:1000D0000020427974657320667265650D0A000020
:1000E0005A38302042415349432056657220342EFD
:1000F00037620D0A436F707972696768742028430C
:10010000292031393738206279204D6963726F7345
:100110006F66740D0A00004D656D6F72792073690A
:100120007A65206E6F7420656E6F7567680D0A546E
:1001300068652073797374656D2069732073746FBB
:10014000707065642E0D0A0000AE167217C4164852
:10015000805610DB1384103819171A531586198C22
:100160001A921AF31A081B2F14731B968008132077
:1001700011A21317132813951B281C381368137228
:1001800013C54E44C64F52CE455854C4415441C97C
:100190004E505554C4494DD2454144CC4554C74FA7
:1001A000544FD2554EC946D24553544F5245C74F6E
:1001B000535542D2455455524ED2454DD3544F50CB
:1001C000CF5554CF4ECE554C4CD7414954C44546DB
:1001D000D04F4B45C44F4B45D3435245454ECC4978
:1001E0004E4553C34C53D749445448CD4F4E4954C0
:1001F0004F52D34554D245534554D052494E54C31F
:100200004F4E54CC495354C34C454152C34C4F41BB
:1002100044C353415645CE4557D4414228D44FC6D6
:100220004ED3504328D448454ECE4F54D354455016
:10023000ABADAAAFDEC14E44CF52BEBDBCD3474E1C
:10024000C94E54C14253D55352C65245C94E50D0DF
:100250004F53D35152D24E44CC4F47C55850C34F41
:1002600053D3494ED4414EC1544ED045454BC4455D
:10027000454BD04F494E54CC454ED3545224D641D1
:100280004CC15343C3485224C8455824C2494E2444
:10029000CC45465424D24947485424CD494424806F
:1002A0009A089707720CE709790BAE0EA80BFE09A6
:1002B000A4098709760A60089309C209E909980820
:1002C000E713580AD908ED138C1036147E1BE90980
:1002D000641B571B5C1B901C99809C809A0AC60863
:1002E0000C074109E909E909040579201879541432
:1002F0007C92157CF3157F411950070E46060E4E71
:1003000046534E52474F4446434F564F4D554C422D
:100310005344442F304944544D4F534C535354434A
:100320004E55464D4F4858424EC3BF00C31709D3E0
:1003300000C9D6006F7CDE006778DE00473E00C94A
:10034000000000354ACA99391C76982295B3980A5C
:10035000DD479853D199990A1A9F9865BCCD98D6D4
:10036000773E9852C74F80DB00C901FF1C00001484
:1003700000140000000000C33D06C30000C30000DD
:10038000C30000A281FEFF3F81204572726F7200A0
:1003900020696E20004F6B0D0A0000427265616B90
:1003A00000210400397E23FE81C04E234623E569E7
:1003B000607AB3EBCABB03EBCDC006010D00E1C808
:1003C00009C3A503CDDE03C5E3C1CDC0067E02C8C7
:1003D0000B2BC3CA03E52A1F81060009093EE53E2F
:1003E000D0956F3EFF9CDAED036739E1D81E0CC350
:1003F0000C042A0E8122A1801E02011E14011E007F
:10040000011E12011E22011E0A011E18CD2A0532EC
:100410008A80CDEB0A21FF02573E3FCDD106197EDF
:10042000CDD106CD5008CDD106218903CD96112A14
:10043000A18011FEFFCDC006CA51007CA53CC4318D
:10044000183EC1AF328A80CDEB0A219503CD9611BB
:1004500021FFFF22A180CD3D06DA5004CD50083C9B
:100460003DCA5004F5CD1C09D5CD540547D1F1D274
:100470003008D5C5AF321181CD5008B7F5CDE404B1
:10048000DA8904F1F5CABD09B7C5D2A004EB2A1B6D
:10049000811A020313CDC006C291046069221B8138
:1004A000D1F1CAC7042A1B81E3C109E5CDC403E128
:1004B000221B81EB74D123237323722311A6801A8C
:1004C000772313B7C2BF04CD100523EB626B7E23E5
:1004D000B6CA5004232323AFBE23C2D804EB732330
:1004E00072C3CC042AA380444D7E23B62BC8232399
:1004F0007E23666FCDC00660697E23666F3FC83F6E
:10050000D0C3E704C02AA380AF77237723221B81BF
:100510002AA3802B2213812AF480220881AFCD6088
:10052000082A1B81221D81221F81C12A9F80F92157
:10053000F88022F680AF6F67221981321081222362
:1005400081E5C52A1381C93E3FCDD1063E20CDD1DC
:1005500006C39380AF32F3800E0511A6807EFE2085
:10056000CADC0547FE22CAFC05B7CA03063AF38077
:10057000B77EC2DC05FE3F3E9ECADC057EFE30DA59
:100580008705FE3CDADC05D5118001C501D805C51B
:10059000067F7EFE61DAA005FE7BD2A005E65F77CE
:1005A0004EEB23B6F2A205047EE67FC8B9C2A205CF
:1005B000EBE5131AB7FAD4054F78FE88C2C305CD10
:1005C00050082B237EFE61DACC05E65FB9CAB2057E
:1005D000E1C3A00548F1EBC9EB79C1D12312130C9B
:1005E000D63ACAEA05FE49C2ED0532F380D654C2B6
:1005F0005D05477EB7CA0306B8CADC0523120C1393
:10060000C3F30521A5801213121312C93A8980B7CA
:100610003E00328980C2200605CA3D06CDD1063E85
:10062000052BCA34067ECDD106C34606052BCDD197
:1006300006C24606CDD106CDF80AC33D0621A680E6
:100640000601AF328980CDFB064FFE7FCA0C063A09
:100650008980B7CA5F063E00CDD106AF3289807966
:10066000FE07CAA306FE03CCF80A37C8FE0DCAF37C
:100670000AFE15CA3706FE40CA3406FE5FCA2C06BB
:10068000FE08CA2C06FE12C29E06C5D5E53600CD70
:10069000A21C21A680CD9611E1D1C1C34606FE2041
:1006A000DA460678FE493E07D2B8067971321181E2
:1006B0002304CDD106C34606CDD1063E08C3B206FB
:1006C0007C92C07D93C97EE3BE23E3CA5008C3F881
:1006D00003F53A8A80B7C2CB11F1C5F5FE20DAF5F1
:1006E000063A8780473AF08004CAF10605B8CCF88C
:1006F0000A3C32F080F1C1CD8D1CC9CD551BE67F7F
:10070000FE0FC03A8A802F328A80AFC9CD1C09C043
:10071000C1CDE404C5CD6207E14E23462378B1CABA
:100720004304CD6B07CD7B08C5CDF80A5E23562365
:10073000E5EBCD39183E20E1CDD1067EB723CA18AE
:1007400007F23807D67F4F1181011A13B7F24A0713
:100750000DC24A07E67FCDD1061A13B7F25407C37C
:100760003B07E52A8D80228B80E1C9E5D52A8B8065
:1007700011FFFFED5A228B80D1E1F0E52A8D802216
:100780008B80CD551BFE03CA8E07E1C36B072A8DF4
:1007900080228B80C3C2003E64321081CDFE09C12D
:1007A000E5CDE709220C8121020039CDA503D1C294
:1007B000C70709D52B562B5E2323E52A0C81CDC014
:1007C00006E1C2AB07D1F9EB0E08CDD503E52A0C43
:1007D00081E3E52AA180E3CDC00CCDC606A6CDBD40
:1007E0000CE5CDEB16E1C5D5010081515A7EFEAB7B
:1007F0003E01C20308CD5008CDBD0CE5CDEB16CDB2
:100800009F16E1C5D5F533E52A1381E30681C5338B
:10081000CD7B082213817EFE3ACA3008B7C2F803A6
:10082000237E23B6CAA208235E2356EB22A180EBC7
:10083000CD5008111008D5C8D680DAFE09FE25D2A1
:10084000F803074F0600EB21A002094E2346C5EB33
:10085000237EFE3AD0FE20CA5008FE303F3C3DC900
:10086000EB2AA380CA7508EBCD1C09E5CDE4046032
:1008700069D1D2BD092B222181EBC9DFC8D7FE1B6C
:100880002811FE03280DFE13C0D7FE11C8FE032851
:100890000718F63EFF329280C0F6C022138121F67F
:1008A000FFC12AA180F57DA43CCAB5082217812A80
:1008B0001381221981AF328A80CDEB0AF1219B038B
:1008C000C22C04C343042A19817CB51E20CA0C041F
:1008D000EB2A178122A180EBC9CD1E14C03286807D
:1008E000C9E52A8F8006004F09228F80E1C97EFE6C
:1008F00041D8FE5B3FC9CD5008CDBD0CCD9F16FA47
:1009000017093A2C81FE90DA4717018090110000F8
:10091000E5CD1A17E151C81E08C30C042B110000C5
:10092000CD5008D0E5F5219819CDC006DAF803625C
:100930006B19291929F1D6305F160019EBE1C32094
:1009400009CA1405CDF9082BCD5008E52AF480CA50
:100950006409E1CDC6062CD5CDF9082BCD5008C2CF
:10096000F803E3EB7D935F7C9A57DAED03E52A1BEE
:100970008101280009CDC006D2ED03EB229F80E162
:1009800022F480E1C31405CA1005CD140501100836
:10099000C3A3090E03CDD503C1E5E52AA180E33E3B
:1009A0008CF533C5CD1C09CDE909E52AA180CDC060
:1009B00006E123DCE704D4E40460692BD81E0EC3EF
:1009C0000C04C016FFCDA103F9FE8C1E04C20C045A
:1009D000E122A180237CB5C2E1093A1181B7C2426C
:1009E00004211008E33EE1013A0E00060079484771
:1009F0007EB7C8B8C823FE22CAED09C3F009CDB33B
:100A00000ECDC606B4D53AF280F5CDCF0CF1E32277
:100A100013811FCDC20CCA510AE52A2981E523237F
:100A20005E23562AA380CDC006D2400A2A9F80CDDD
:100A3000C006D1D2480A210481CDC006D2480A3E60
:100A4000D1CDF712EBCD3011CDF712E1CDFA16E191
:100A5000C9E5CDF716D1E1C9CD1E147E47FE8CCA7B
:100A6000670ACDC606882B4B0D78CA3808CD1D09FC
:100A7000FE2CC0C3680ACDCF0C7EFE88CA840ACD86
:100A8000C606A92BCDC00CCD9F16CAE909CD5008CA
:100A9000DAA409C337082BCD5008CAF80AC8FEA546
:100AA000CA2B0BFEA8CA2B0BE5FE2CCA140BFE3B6F
:100AB000CA4E0BC1CDCF0CE53AF280B7C2E40ACDE5
:100AC0004418CD541136202A2981342A29813A87A5
:100AD000804704CAE00A043AF080863DB8D4F80A98
:100AE000CD9911AFC49911E1C3960A3AF080B7C805
:100AF000C3F80A360021A5803E0DCDD1063E0ACDB1
:100B0000D106AF32F0803A86803DC8F5AFCDD10630
:100B1000F1C3090B3A8880473AF080B8D4F80AD27A
:100B20004E0BD60ED2220B2FC3430BF5CD1B14CD8B
:100B3000C606292BF1D6A8E5CA3E0B3AF0802F83D2
:100B4000D24E0B3C473E20CDD10605C2470BE1CD2E
:100B50005008C39D0A3F5265646F2066726F6D2016
:100B600073746172740D0A003A1281B7C2F203C144
:100B700021550BCD9611C34305CD01117EFE223EBA
:100B800000328A80C2930BCD5511CDC6063BE5CD10
:100B900099113EE5CD4705C1DA9F08237EB72BC5E5
:100BA000CAE609362CC3AD0BE52A2181F6AF321215
:100BB00081E3C3B90BCDC6062CCDB30EE3D57EFEC3
:100BC0002CCAE10B3A1281B7C24E0C3E3FCDD10682
:100BD000CD4705D1C1DA9F08237EB72BC5CAE609E8
:100BE000D53AF280B7CA0B0CCD50085747FE22CA3F
:100BF000FF0B3A1281B757CAFC0B163A062C2BCDC5
:100C00005811EB21160CE3D5C3190ACD5008CDA617
:100C100017E3CDF716E12BCD5008CA220CFE2CC2EB
:100C2000680BE32BCD5008C2B50BD13A1281B7EB5C
:100C3000C27608D5B6213D0CC49611E1C93F45786E
:100C40007472612069676E6F7265640D0A00CDE78A
:100C500009B7C2670C237E23B61E06CA0C04235EA6
:100C60002356EB220E81EBCD5008FE83C24E0CC3FF
:100C7000E10B110000C4B30E221381CDA103C2FE0B
:100C800003F9D57E23F5D5CDDD16E3E5CD4A14E194
:100C9000CDF716E1CDEE16E5CD1A17E1C190CDEEF8
:100CA00016CAAD0CEB22A1806960C30C08F92A13A7
:100CB000817EFE2CC21008CD5008CD750CCDCF0C16
:100CC000F6373AF2808FB7E8C30A04CDC606282B60
:100CD0001600D50E01CDD503CD460D2215812A155E
:100CE00081C178FE78D4C00C7E1600D6B3DA070D29
:100CF000FE03D2070DFE0117AABA57DAF803220A3B
:100D000081CD5008C3EB0C7AB7C22E0E7E220A8129
:100D1000D6ACD8FE07D05F3AF2803DB37BCA8C12C6
:100D200007835F21EA02197856BAD023CDC00CC5DB
:100D300001DE0CC5434ACDD01658514E234623C57B
:100D40002A0A81C3D20CAF32F280CD50081E24CAC9
:100D50000C04DAA617CDEE08D2AD0DFE262012CD7A
:100D60005008FE48CAEA1BFE42CA5A1C1E02CA0CA0
:100D700004FEACCA460DFE2ECAA617FEADCA9C0DD7
:100D8000FE22CA5511FEAACA8E0EFEA7CAB910D6F7
:100D9000B6D2BE0DCDCB0CCDC60629C9167DCDD29F
:100DA0000C2A1581E5CDC816CDC00CE1C9CDB30E16
:100DB000E5EB2229813AF280B7CCDD16E1C90600C5
:100DC000074FC5CD500879FE31DAE50DCDCB0CCDFE
:100DD000C6062CCDC10CEB2A2981E3E5EBCD1E1410
:100DE000EBE3C3ED0DCD940DE311A80DD501490141
:100DF000094E236669E915FEADC8FE2DC814FE2B09
:100E0000C8FEACC82BC9F6AFF5CDC00CCD0209F1B8
:100E1000EBC1E3EBCDE016F5CD0209F1C179217705
:100E200010C2290EA34F78A2E9B34F78B2E921404E
:100E30000E3AF2801F7A175F166478BAD0C32F0D6E
:100E4000420E79B71FC1D1F5CDC20C21840EE5CA7F
:100E50001A17AF32F280D5CDD9127E23234E234606
:100E6000D1C5F5CDDD12CDEE16F157E17BB2C87AD2
:100E7000D601D8AFBB3CD0151D0ABE2303CA6C0EE9
:100E80003FC3AA163C8FC1A0C6FF9FC3B116165A16
:100E9000CDD20CCDC00CCD02097B2F4F7A2FCD7750
:100EA00010C1C3DE0C2BCD5008C8CDC6062C01A541
:100EB0000EC5F6AF32F18046CDEE08DAF803AF4F3B
:100EC00032F280CD5008DACF0ECDEE08DADC0E4FCC
:100ED000CD5008DAD00ECDEE08D2D00ED624C2EB1B
:100EE0000E3C32F2800F814FCD50083A10813DCA3E
:100EF000980FF2FB0E7ED628CA700FAF321081E534
:100F000050592A2381CDC006112581CAE0152A1D1A
:100F100081EB2A1B81CDC006CA2E0F799623C223EE
:100F20000F789623CA620F23232323C3150FE1E30F
:100F3000D511B00DCDC006D1CA650FE3E5C50106D8
:100F4000002A1F81E509C1E5CDC403E1221F8160AC
:100F500069221D812B3600CDC006C2540FD17323E8
:100F60007223EBE1C9322C81219403222981E1C94A
:100F7000E52AF180E357D5C5CDF608C1F1EBE3E5ED
:100F8000EB3C577EFE2CCA760FCDC6062922158172
:100F9000E122F1801E00D511E5F52A1D813E19EBF5
:100FA0002A1F81EBCDC006CAD00F7EB923C2B20F73
:100FB0007EB8235E235623C29E0F3AF180B7C2014A
:100FC00004F1444DCAE01596CA2E101E10C30C043D
:100FD000110400F1CA1709712370234FCDD50323E3
:100FE00023220A8171233AF1801779010B00D2F391
:100FF0000FC10371237023F5E5CD8B17EBE1F13DB4
:10100000C2EB0FF5424BEB19DAED03CDDE03221FE5
:10101000812B3600CDC006C2111003572A0A815E0B
:10102000EB2909EB2B2B73237223F1DA5210474F74
:101030007E2316E15E235623E3F5CDC006D2CB0F07
:10104000E5CD8B17D119F13D444DC233102929C18B
:1010500009EB2A1581C92A1F81EB210000393AF2D8
:1010600080B7CA7210CDD912CDD9112A9F80EB2A30
:1010700008817D934F7C9A41501E0021F2807306B7
:1010800090C3B6163AF08047AFC37810CD0F11CD9C
:10109000011101E709C5D5CDC60628CDB30EE5EB94
:1010A0002B562B5EE1CDC00CCDC60629CDC606B4AD
:1010B000444DE3712370C34E11CD0F11D5CD940D66
:1010C000CDC00CE35E2356237AB3CA04047E2366A4
:1010D0006FE52A2381E32223812A2781E52A2581BE
:1010E000E5212581D5CDF716E1CDBD0C2BCD5008DE
:1010F000C2F803E1222581E1222781E1222381E157
:10110000C9E52AA180237CB5E1C01E16C30C04CD1D
:10111000C606A73E80321081B647CDB80EC3C00CBC
:10112000CDC00CCD4418CD5411CDD912013413C506
:101130007E2323E5CDAF11E14E2346CD4811E56F67
:10114000CDCC12D1C9CDAF11210481E57723237312
:101150002372E1C92B062250E50EFF237E0CB7CA8D
:101160006A11BACA6A11B8C25B11FE22CC5008E3F8
:1011700023EB79CD48111104812AF6802229813E82
:101180000132F280CDFA16CDC00622F680E17EC093
:101190001E1EC30C0423CD5411CDD912CDEE161C46
:1011A0001DC80ACDD106FE0DCC020B03C3A011B79A
:1011B0000EF1F52A9F80EB2A08812F4F06FF0923A5
:1011C000CDC006DACD1122088123EBF1C9F11E1A38
:1011D000CA0C04BFF501B111C52AF480220881218F
:1011E0000000E52A9F80E521F880EB2AF680EBCD10
:1011F000C00601EA11C23E122A1B81EB2A1D81EBB7
:10120000CDC006CA11127E2323B7CD4112C3FB11F4
:10121000C1EB2A1F81EBCDC006CA6712CDEE167B4B
:10122000E509B7F21012220A81E14E0600090923EE
:10123000EB2A0A81EBCDC006CA1112013012C5F6A5
:10124000807E23235E235623F0B7C8444D2A0881AD
:10125000CDC0066069D8E1E3CDC006E3E56069D0A2
:10126000C1F1F1E5D5C5C9D1E17DB4C82B462B4EFE
:10127000E52B2B6E26000950592B444D2A0881CDB1
:10128000C703E171237069602BC3DC11C5E52A290E
:1012900081E3CD460DE3CDC10C7EE52A2981E586AB
:1012A0001E1CDA0C04CD4511D1CDDD12E3CDDC12CC
:1012B000E52A0681EBCDC312CDC31221DB0CE3E599
:1012C000C37611E1E37E23234E23466F2C2DC80AFB
:1012D000120313C3CD12CDC10C2A2981EBCDF71215
:1012E000EBC0D550591B4E2A0881CDC006C2F5125D
:1012F0004709220881E1C92AF6802B462B4E2B2B69
:10130000CDC006C022F680C9018710C5CDD612AF68
:101310005732F2807EB7C9018710C5CD0C13CA17AA
:101320000923235E23561AC93E01CD4511CD211450
:101330002A068173C1C37611CDD113AFE34FE57E89
:10134000B8DA461378110E00C5CDAF11C1E1E5231F
:101350002346236668060009444DCD48116FCDCC65
:1013600012D1CDDD12C37611CDD113D1D51A90C3D0
:101370003C13EB7ECDD6130405CA1709C51EFFFE2C
:1013800029CA8B13CDC6062CCD1E14CDC60629F155
:10139000E3013E13C53DBE0600D04F7E91BB47D84A
:1013A00043C9CD0C13CABF145F23237E23666FE5A8
:1013B000194672E3C57EFE24C2C013CDEA1B180D88
:1013C000FE25C2CA13CD5A1C1803CDA617C1E17061
:1013D000C9EBCDC60629C1D1C543C9CD211432847C
:1013E00080CD8380C38710CD0B14C34B80CD0B14ED
:1013F000F51E002BCD5008CA0114CDC6062CCD1EFB
:1014000014C1CD8380ABA0CA0214C9CD1E1432848E
:1014100080324C80CDC6062CC31E14CD5008CDBDE5
:101420000CCDFC087AB7C217092BCD50087BC9CD6B
:1014300002091AC38710CDBD0CCD0209D5CDC60651
:101440002CCD1E14D112C9211D19CDEE16C359146D
:10145000CDEE1621C1D1CDC81678B7C83A2C81B7C8
:10146000CAE01690D273142F3CEBCDD016EBCDE032
:1014700016C1D1FE19D0F5CD051767F1CD1E15B4F3
:10148000212981F29914CDFE14D2DF142334CA0726
:10149000042E01CD3415C3DF14AF90477E9B5F232C
:1014A0007E9A57237E994FDC0A156863AF4779B758
:1014B000C2CC144A54656F78D608FEE0C2AD14AFB2
:1014C000322C81C905297A1757798F4FF2C41478C5
:1014D0005C45B7CADF14212C818677D2BF14C87847
:1014E000212C81B7FCF11446237EE680A94FC3E08E
:1014F000161CC014C00CC00E8034C0C307047E8309
:101500005F237E8A57237E894FC9212D817E2F77C5
:10151000AF6F90477D9B5F7D9A577D994FC90600BD
:10152000D608DA2D15435A510E00C32015C6096F8F
:10153000AF2DC8791F4F7A1F577B1F5F781F47C396
:1015400030150000008103AA561980F122768045EB
:10155000AA3882CD9F16B7EA1709212C817E013562
:101560008011F30490F570D5C5CD5914C1D104CDC7
:10157000F515214215CD5014214615CDE7190180EE
:1015800080110000CD5914F1CD1A180131801118C5
:101590007221C1D1CD9F16C82E00CD5D1679323B88
:1015A00081EB223C81010000505821AA14E521B6AC
:1015B00015E5E52129817E23B7CAE215E52E081F2E
:1015C0006779D2D015E52A3C8119EBE13A3B818954
:1015D0001F4F7A1F577B1F5F781F472D7CC2BF1597
:1015E000E1C9435A514FC9CDD016012084110000E2
:1015F000CDE016C1D1CD9F16CAFB032EFFCD5D16DF
:1016000034342B7E3257802B7E3253802B7E324FE8
:101610008041EBAF4F575F325A80E5C57DCD4E809C
:10162000DE003FD22D16325A80F1F137D2C1E17976
:101630003C3D1FFAE014177B175F7A175779174F55
:10164000297817473A5A8017325A8079B2B3C21AAA
:1016500016E5212C8135E1C21A16C3070478B7CAF2
:1016600081167D212C81AE80471FA878F28016C696
:101670008077CAE015CD0517772BC9CD9F162FE1CE
:10168000B7E1F2BF14C30704CDEB1678B7C8C602A2
:10169000DA070447CD5914212C8134C0C307043A1A
:1016A0002C81B7C83A2B81FE2F179FC03CC9CD9F14
:1016B000160688110000212C814F70060023368009
:1016C00017C3A714CD9F16F0212B817EEE8077C91A
:1016D000EB2A2981E3E52A2B81E3E5EBC9CDEE1660
:1016E000EB2229816069222B81EBC92129815E23AC
:1016F00056234E234623C911298106041A77132342
:1017000005C2FC16C9212B817E07371F773F1F2397
:1017100023777907371F4F1FAEC978B7CA9F1621A5
:10172000A816E5CD9F1679C8212B81AE79F8CD3466
:10173000171FA9C92378BEC02B79BEC02B7ABEC0A3
:101740002B7B96C0E1E1C9474F575FB7C8E5CDEBAA
:1017500016CD0517AE67FC6B173E9890CD1E157C15
:1017600017DCF1140600DC0A15E1C91B7AA33CC0A2
:101770000BC9212C817EFE983A2981D07ECD471756
:1017800036987BF57917CDA714F1C921000078B1FF
:10179000C83E1029DACB0FEB29EBD2A11709DACB1F
:1017A0000F3DC29317C9FE2DF5CAB217FE2BCAB260
:1017B000172BCDBF1447575F2F4FCD5008DA0318B2
:1017C000FE2ECADE17FE45C2E217CD5008CDF60D3B
:1017D000CD5008DA251814C2E217AF935F0C0CCA7B
:1017E000BA17E57B90F4FB17F2F117F5CDE715F189
:1017F0003CC2E517D1F1CCC816EBC9C8F5CD8816A7
:10180000F13DC9D557788947C5E5D5CD8816F1D6BC
:1018100030CD1A18E1C1D1C3BA17CDD016CDB1164B
:10182000C1D1C359147B0707830786D6305FC3D065
:1018300017E5219003CD9611E1EBAF0698CDB616D2
:10184000219511E5212E81E5CD9F163620F2521803
:10185000362D233630CA0819E5FCC816AFF5CD0E73
:101860001901439111F84FCD1A17B7E27F18F1CD46
:10187000FC17F5C36118CDE715F13CF5CD0E19CD78
:1018800047143CCD4717CDE016010603F1813CFA21
:101890009B18FE08D29B183C473E023D3DE1F511E6
:1018A000211905C2AC18362E2336302305362ECC2E
:1018B000F516C5E5D5CDEB16E1062F047B965F2323
:1018C0007A9E5723799E4F2B2BD2BB18CDFE142323
:1018D000CDE016EBE17023C10DC2AC1805CAEC18BF
:1018E0002B7EFE30CAE018FE2EC4F516F1CA0B1985
:1018F000364523362BF2FC18362D2F3C062F04D606
:101900000AD2FE18C63A237023772371E1C9017405
:101910009411F723CD1A17B7E1E27618E900000019
:1019200080A08601102700E803006400000A000080
:1019300001000021C816E3E9CDD016211D19CDDD27
:1019400016C1D1CD9F1678CA8619F25119B7CAFBB4
:1019500003B7CAC014D5C579F67FCDEB16F26E1960
:10196000D5C5CD7217C1D1F5CD1A17E17C1FE12283
:101970002B81E1222981DC3319CCC816D5C5CD5382
:1019800015C1D1CD9415CDD016013881113BAACD0A
:1019900094153A2C81FE88D27B16CD7217C680C66C
:1019A00002DA7B16F5214215CD4A14CD8B15F1C113
:1019B000D1F5CD5614CDC81621C619CDF619110092
:1019C00000C14AC3941508402E9474704F2E776E50
:1019D00002887AE6A02A7C50AAAA7EFFFF7F7F00B9
:1019E00000808100000081CDD016119215D5E5CD83
:1019F000EB16CD9415E1CDD0167E23CDDD1606F184
:101A0000C1D13DC8D5C5F5E5CD9415E1CDEE16E5BE
:101A1000CD5914E1C3FF19CD9F16215E80FA781AC3
:101A2000217F80CDDD16215E80C886E6070600771F
:101A30002387874F09CDEE16CD94153A5D803CE69D
:101A4000030600FE0188325D80217C1A87874F09DA
:101A5000CD4A14CDEB167B59EE4F4F36802B4636D0
:101A600080215C80347ED6ABC26F1A770C151CCDFA
:101A7000AA14217F80C3F716772B772B77C3531ACD
:101A800068B1466899E9926910D1756821D61ACD76
:101A90004A14CDD01601498311DB0FCDE016C1D118
:101AA000CDF515CDD016CD7217C1D1CD561421DA92
:101AB0001ACD5014CD9F1637F2C21ACD4714CD9FC0
:101AC00016B7F5F4C81621DA1ACD4A14F1D4C8169F
:101AD00021DE1AC3E719DB0F49810000007F05BA38
:101AE000D71E866426998758342387E05DA586DA59
:101AF0000F4983CDD016CD921AC1E1CDD016EBCDD2
:101B0000E016CD8C1AC3F315CD9F16FC3319FCC813
:101B1000163A2C81FE81DA251B0100815159CDF541
:101B200015215014E5212F1BCDE71921D61AC9091B
:101B30004AD73B78026E847BFEC12F7C74319A7D3C
:101B4000843D5A7DC87F917EE4BB4C7E6CAAAA7FFF
:101B500000000081C9D7C93E0CC38D1CCD1E147B6B
:101B6000328780C9CDBD0CCD0209ED538B80ED537A
:101B70008D80C9CD0209D5E146237EC37810CDBD45
:101B80000CCD0209D5CDC6062CCDBD0CCD0209E386
:101B9000732372E1C9CDC00CCD0209C5212E817A13
:101BA000FE00280CCDCD1B78FE3028027023712357
:101BB0007BCDCD1B7AFE00200578FE3028027023F5
:101BC0007123AF772377C1212E81C3261147E60FFA
:101BD000FE0A3802C607C6304F780F0F0F0FE60F08
:101BE000FE0A3802C607C63047C9EB210000CD0304
:101BF0001CDA231C1805CD031C381F29292929B5F7
:101C00006F18F3131AFE20CA031CD630D8FE0A3808
:101C100005D607FE0AD8FE103FC9EB7A4BE5CD7713
:101C200010E1C91E26C30C04CDC00CCD0209C5218C
:101C30002E8106110578FE012808CB13CB1230F453
:101C40001804CB13CB123E30CE0077230520F3AF20
:101C5000772377C1212E81C32611EB210000CD7798
:101C60001CDA851CD63029B56FCD771C30F6EB7A9F
:101C70004BE5CD7710E1C9131AFE20CA771CFE3060
:101C8000D8FE323FC91E28C30C04C35100C308004C
:101C9000C300003E00329280C35800F5A0C1B83E98
:101CA00000C9CDD106C3F80AFFFFFFFFFFFFFFFF0A
:101CB000FFFFFFFFFFFFFFFFFFFFFFFFFFFFFFFF34
:101CC000FFFFFFFFFFFFFFFFFFFFFFFFFFFFFFFF24
:101CD000FFFFFFFFFFFFFFFFFFFFFFFFFFFFFFFF14
:101CE000FFFFFFFFFFFFFFFFFFFFFFFFFFFFFFFF04
:10400000FD0EC26EE70EBE6EBF68C068C168000ECE
:104010000401206F000E006F000E086F000E106F7D
:10402000000E186F0D0ECA6EA70EC66EC768C86860
:10403000C968090E216FE70E016F096911691969D5
:10404000080E0001B16F010E0201D56FA00ED46FF2
:10405000D189D18B070E766F260E076FD28F010E96
:10406000616F020E626F1C0E636F1D0E646F050E92
:10407000656F1E0E676F1F0E686F010E056F000ED5
:104080000001D56F030ED76F000ED86F010ED96FE8
:104090007F0EDA6F7F0EDB6F020EDC6F080EDD6FB6
:1040A000000EDE6F000EDF6F040ED66F010ED56FAF
:1040B0000F0ED76F040ED86F7F0ED96F060EDA6F12
:1040C000070EDB6F020EDC6F000EDD6F200EDE6F61
:1040D000800EDF6F820ED66F020ED56F070ED76F80
:1040E000020ED86F030ED96F060EDA6F070EDB6F64
:1040F000020EDC6F080EDD6F200EDE6F800EDF6FAC
:10410000820ED66F030ED56F010ED76F020ED86FD9
:10411000030ED96F060EDA6F070EDB6F020EDC6F2F
:10412000080EDD6F200EDE6F800EDF6F820ED66F01
:10413000040ED56F0E0ED76F040ED86F7F0ED96F99
:104140007F0EDA6F7F0EDB6F020EDC6F000EDD6F0D
:10415000200EDE6F800EDF6F820ED66F3F0E0201E3
:10416000046F020E0401456F4D0E446F230E436F22
:10417000000E476F4691468B468F000E0001D56FAB
:10418000840ED66FD787CEB6FED7CEA6FED7CEB6D4
:10419000FED7CEA6FED7CEB6FED7CEA6FED7CEB6DB
:1041A000FED7CEA6FED7010EF86EC2820001D797C9
:1041B00027D0000000000000000000000000000008
:1041C00000000000000000000000000000000000EF
:1041D00000000000000000000000000000000000DF
:1041E00000000000000000000000000000000000CF
:1041F00000000000000000000000000000000000BF
:10420000F950D4B1FED7D4511E0BF92632D00ED0BE
:1042100018D02FD021D02DD02CD02BD02AD029D0DF
:104220002CD027D035D025D024D023D0CFC4F6F43D
:10423000D1C4F7F40800F5C4C0F4C86AD787D7978B
:10424000E0D7CFC4D9F4D150900ADA6EDF50C06EF7
:10425000C86AD787D797D5D7C86ACFB005D0C7C2A5
:10426000C0F4D787D797CDD7B7C4C0F4D787D7972F
:10427000C8D7C868D787D797C4D7C868CFC4D9F478
:10428000D150900ADA6ED0C4DFF4D787D797B9D768
:10429000C868CFB003D0C868D0C4C9F2D787D79751
:1042A000B0D7FEEFFFF004EE00F014EE00F0EE6A7F
:1042B000E550E150FCE1E250FAE1000EF86E000139
:0442C00000EFA0F07B
:04FFFC0053EFA1F02E
:020000040020DA
:10000000FF0FFF0FFF0FFF0FFF0FFF0FFF0FFF0F80
:10001000FF0FFF0FFF0FFF0FFF0FFF0FFF0FFF0F70
:10002000FF0FFF0FFF0FFF0FFF0FFF0FFF0FFF0F60
:10003000FF0FFF0FFF0FFF0FFF0FFF0FFF0FFF0F50
:020000040030CA
:0A0000008CFFFFF79FFFFFFFFFFFDB
:00000001FF
